:100000000C9462000C948A000C948A000C948A0070
:100010000C948A000C948A000C948A000C948A0038
:100020000C948A000C948A000C948A000C948A0028
:100030000C948A000C948A000C948A000C948A0018
:100040000C94EF050C948A000C94E1030C942804A2
:100050000C948A000C948A000C948A000C948A00F8
:100060000C948A000C948A000000000024002700F1
:100070002A0000000000250028002B0000000000DE
:1000800023002600290004040404040404040202DA
:100090000202020203030303030301020408102007
:1000A0004080010204081020010204081020000012
:1000B0000007000201000003040600000000000029
:1000C00000009F0511241FBECFEFD8E0DEBFCDBFDB
:1000D00012E0A0E0B1E0E4ECFDE002C005900D927A
:1000E000A230B107D9F712E0A2E0B2E001C01D9240
:1000F000A93BB107E1F710E0C4ECD0E004C02297BF
:10010000FE010E94DC06C23CD107C9F70E949A0298
:100110000C94E0060C94000081E992E00E94F70440
:10012000181619060CF0BBC081E992E00E94280560
:10013000909303028093020281E992E060E071E013
:100140000E94CA03609102027091030281E992E069
:100150004AE050E00E94AB036091020270910302FA
:1001600081E992E04AE050E00E94AB0380910202F4
:10017000909103028436910509F45EC0853691059D
:1001800044F48034910569F08136910509F06BC023
:1001900023C083379105C9F18737910509F063C002
:1001A00004C081E0809308027AC08091080288230D
:1001B00049F081E992E06DE071E00E94CD03109278
:1001C000040216C081E992E065E271E00E94CD036D
:1001D00081E08093040263C080910802882359F073
:1001E00081E992E06DE371E00E94CD031092050277
:1001F0001092080254C081E992E065E571E00E9426
:10020000CD0381E0809305024AC0809108028823D3
:1002100049F081E992E06DE671E00E94CD03109211
:100220000602E6CF81E992E065E871E00E94CD0325
:1002300081E08093060233C080910802882349F050
:1002400081E992E06DE971E00E94CD03109207020E
:10025000CFCF81E992E065EB71E00E94CD0381E0B0
:10026000809307021CC081E992E06DEC71E00E946E
:10027000CD0310920802109204021092050210920F
:100280000602109207028091EA0160E070E00E948D
:10029000C0018091EE0160E070E00E94C001809199
:1002A0000402882349F08091EC0161E00E9446023B
:1002B0008091F00161E00CC0809106028823A9F0D2
:1002C0008091EC0160E00E9446028091F00160E0C4
:1002D0000E9446028091EA016FEF70E00E94C00127
:1002E0008091EE016FEF70E00AC08091EA0160E05A
:1002F00070E00E94C0018091EE0160E070E00E9419
:10030000C00180910502882369F08091EA016FEFB6
:1003100070E00E94C0018091EE0160E470E00E94F4
:10032000C001089580910702882361F08091EA015D
:1003300060E470E00E94C0018091EE016FEF70E018
:100340000E94C00108950F931F938091EC0161E01A
:100350000E9420028091F00161E00E94200201E9E8
:1003600012E0C80140E855E260E070E00E947104CC
:10037000C80164EE71E00E94CD031F910F910895B2
:100380001F93CF93DF93182FEB0161E00E942002AF
:10039000209709F44AC0CF3FD10509F449C0E12FA5
:1003A000F0E0E255FF4F84918330C1F0843028F4AF
:1003B000813051F08230B1F50CC0863019F18730B0
:1003C00049F1843079F514C084B5806884BDC7BD17
:1003D00033C084B5806284BDC8BD2EC080918000CA
:1003E000806880938000D0938900C093880024C0E7
:1003F00080918000806280938000D0938B00C093B6
:100400008A001AC08091B00080688093B000C093C9
:10041000B30012C08091B00080628093B000C0939E
:10042000B4000AC0C038D1051CF4812F60E002C0BE
:10043000812F61E00E944602DF91CF911F910895C4
:10044000482F50E0CA0186569F4FFC0124914A571D
:100450005F4FFA0184918823C1F0E82FF0E0EE0F9E
:10046000FF1FE859FF4FA591B491662341F49FB750
:10047000F8948C91209582238C939FBF08959FB709
:10048000F8948C91822B8C939FBF0895482F50E055
:10049000CA0182559F4FFC012491CA0186569F4F85
:1004A000FC0194914A575F4FFA013491332309F4C8
:1004B00040C0222351F1233071F0243028F4213040
:1004C000A1F0223011F514C02630B1F02730C1F070
:1004D0002430D9F404C0809180008F7703C08091CC
:1004E00080008F7D8093800010C084B58F7702C01C
:1004F00084B58F7D84BD09C08091B0008F7703C023
:100500008091B0008F7D8093B000E32FF0E0EE0F7C
:10051000FF1FEE58FF4FA591B4912FB7F8946623B3
:1005200021F48C919095892302C08C91892B8C9316
:100530002FBF0895CF93DF930E9437060E94A30137
:10054000C5E1D4E00E948C002097E1F30E941504DD
:10055000F9CFCF92DF92EF92FF920F931F93CF9339
:10056000DF937C016B018A01C0E0D0E00FC0D601AF
:100570006D916D01D701ED91FC910190F081E02D1D
:10058000C7010995C80FD91F015010400115110569
:1005900071F7CE01DF91CF911F910F91FF90EF90F6
:1005A000DF90CF900895EF92FF920F931F938C01ED
:1005B000DC01ED91FC910190F081E02D6DE0099559
:1005C0007C01D801ED91FC910190F081E02DC801F2
:1005D0006AE009959C012E0D3F1DC9011F910F91E5
:1005E000FF90EF900895CF93DF93DB010D900020F3
:1005F000E9F71197A61BB70BEC01E881F98102809E
:10060000F381E02DAD010995DF91CF9108954F92CF
:100610005F927F928F929F92AF92BF92CF92DF9222
:10062000EF92FF920F931F93DF93CF93CDB7DEB777
:10063000A1970FB6F894DEBF0FBECDBF2C01742E6C
:10064000CB01223008F42AE019A231E2C32ED12CCA
:10065000CC0EDD1E822E9924AA24BB24672D752F73
:10066000A50194010E94A40679018A01C801B7017D
:10067000A50194010E947206472D461B0894C108EB
:10068000D1084A3014F4405D01C0495CF601408352
:10069000E114F1040105110521F07E2C5F2DC80144
:1006A000DDCFC201B6010E94F302A1960FB6F89405
:1006B000DEBF0FBECDBFCF91DF911F910F91FF9095
:1006C000EF90DF90CF90BF90AF909F908F907F90F2
:1006D0005F904F900895CF92DF92EF92FF920F9329
:1006E0001F93CF93DF93EC016A017B012115310544
:1006F00041F4E881F9810190F081E02D642F0995A2
:100700001FC02A303105D1F477FF17C0E881F98185
:100710000190F081E02D6DE209958C014427552769
:10072000BA014C195D096E097F09CE012AE00E94C9
:1007300007039801280F391F04C02AE00E9407030D
:100740009C01C901DF91CF911F910F91FF90EF9014
:10075000DF90CF900895CF92DF92EF92FF920F93A8
:100760001F936C017B019A010027F7FC0095102F65
:10077000B801A7010E946B038C01C6010E94D3023D
:10078000080F191FC8011F910F91FF90EF90DF9084
:10079000CF9008950E94F3020895EF92FF920F9375
:1007A0001F937C010E94F3028C01C7010E94D302B7
:1007B000080F191FC8011F910F91FF90EF90089526
:1007C00008951F920F920FB60F9211242F933F930B
:1007D0004F938F939F93EF93FF934091C600209187
:1007E000490230914A022F5F3F4F2F733070809142
:1007F0004B0290914C022817390759F0E0914902B9
:10080000F0914A02E75FFD4F408330934A02209304
:100810004902FF91EF919F918F914F913F912F91BD
:100820000F900FBE0F901F901895E0919D02F091D0
:100830009E02E05CFF4F8191919120813181821B6A
:10084000930B8F739070892B11F00E94E003089531
:100850001F920F920FB60F9211242F933F934F9335
:100860005F936F937F938F939F93AF93BF93EF9318
:10087000FF9320918D0230918E0280918F02909192
:1008800090022817390731F48091C1008F7D809341
:10089000C10016C0E0918F02F0919002E35BFD4F22
:1008A000408180918F0290919002019660E470E007
:1008B0000E9491069093900280938F024093C6000D
:1008C000FF91EF91BF91AF919F918F917F916F9128
:1008D0005F914F913F912F910F900FBE0F901F90FE
:1008E0001895AF92BF92DF92EF92FF920F931F93F2
:1008F000CF93DF93EC017A018B01DD24403081EE50
:10090000580780E0680780E0780711F0DD24D39471
:1009100091E0A92EB12CEC89FD89DD2069F0C5019B
:100920000E8C02C0880F991F0A94E2F7808360E062
:1009300079E08DE390E005C0108260E874E88EE114
:1009400090E0A80197010E94A40621503040404049
:100950005040569547953795279580E120303807C8
:1009600020F0DD2011F0DD24D6CFE889F98930832D
:10097000EA89FB892083EE89FF89408121E030E00C
:10098000C9010A8C02C0880F991F0A94E2F7482B0C
:100990004083EE89FF894081C9010B8C02C0880F1A
:1009A000991F0A94E2F7482B4083EE89FF89408122
:1009B000C9010C8C02C0880F991F0A94E2F7482BDA
:1009C0004083EE89FF8980810D8C02C0220F331F86
:1009D0000A94E2F7209528232083DF91CF911F917D
:1009E0000F91FF90EF90DF90BF90AF900895DC01E2
:1009F0001C96ED91FC911D97E05CFF4F2191319188
:100A000080819181281B390B2F733070C9010895A3
:100A1000DC011C96ED91FC911D97E05CFF4F20815D
:100A20003181E054F040DF01AE5BBF4F8D919C916E
:100A300011972817390719F42FEF3FEF07C08D9151
:100A40009C91E80FF91F8081282F30E0C90108959B
:100A5000DC011C96ED91FC911D97E05CFF4F20811D
:100A60003181E054F040DF01AE5BBF4F8D919C912E
:100A700011972817390719F42FEF3FEF10C08D9108
:100A80009C911197E80FF91F20818D919C911197EE
:100A900001968F73907011969C938E9330E0C901EC
:100AA0000895FC0186859785DC01A05CBF4FFC01A1
:100AB000EE5BFF4F2D913C9111978081918128171A
:100AC0003907C1F70895CF93DF93EC01462FEE85E8
:100AD000FF85E05CFF4F80819181E054F0400196FA
:100AE00060E470E00E9491069C01DF01AE5BBF4FA5
:100AF0008D919C91119728173907D1F3E05CFF4F36
:100B000080819181E054F040E80FF91F4083EE8529
:100B1000FF85E05CFF4F31832083EE89FF892081D0
:100B200081E090E00D8C02C0880F991F0A94E2F7D3
:100B3000282B208381E090E0DF91CF9108951092DF
:100B400094021092930288EE93E0A0E0B0E08093CC
:100B5000950290939602A0939702B093980286EF25
:100B600091E0909392028093910289E092E09093B9
:100B70009E0280939D028DE492E09093A002809368
:100B80009F0285EC90E09093A2028093A10284ECF6
:100B900090E09093A4028093A30280EC90E0909365
:100BA000A6028093A50281EC90E09093A802809326
:100BB000A70286EC90E09093AA028093A90284E0B9
:100BC0008093AB0283E08093AC0287E08093AD0218
:100BD00085E08093AE0281E08093AF0208951F927A
:100BE0000F920FB60F9211242F933F938F939F93E1
:100BF000AF93BF938091B4029091B502A091B602D9
:100C0000B091B7023091B8020196A11DB11D232FFA
:100C10002D5F2D3720F02D570196A11DB11D20937A
:100C2000B8028093B4029093B502A093B602B09339
:100C3000B7028091B0029091B102A091B202B0913E
:100C4000B3020196A11DB11D8093B0029093B10231
:100C5000A093B202B093B302BF91AF919F918F91D5
:100C60003F912F910F900FBE0F901F901895789481
:100C700084B5826084BD84B5816084BD85B58260A1
:100C800085BD85B5816085BDEEE6F0E0808181603F
:100C90008083E1E8F0E0108280818260808380813F
:100CA00081608083E0E8F0E0808181608083E1EB17
:100CB000F0E0808184608083E0EBF0E080818160FF
:100CC0008083EAE7F0E080818460808380818260B5
:100CD000808380818160808380818068808310929E
:100CE000C1000895629FD001739FF001829FE00DC3
:100CF000F11D649FE00DF11D929FF00D839FF00D9B
:100D0000749FF00D659FF00D9927729FB00DE11D46
:100D1000F91F639FB00DE11DF91FBD01CF01112423
:100D2000089597FB092E07260AD077FD04D02ED010
:100D300006D000201AF4709561957F4F0895F6F75C
:100D4000909581959F4F0895A1E21A2EAA1BBB1B77
:100D5000FD010DC0AA1FBB1FEE1FFF1FA217B30787
:100D6000E407F50720F0A21BB30BE40BF50B661F9D
:100D7000771F881F991F1A9469F760957095809561
:100D800090959B01AC01BD01CF010895AA1BBB1B2F
:100D900051E107C0AA1FBB1FA617B70710F0A61B7B
:100DA000B70B881F991F5A95A9F780959095BC019C
:100DB000CD010895EE0FFF1F0590F491E02D0994E9
:040DC000F894FFCFD5
:100DC400492072656365697665643A200077203D41
:100DD4002066616C73652C206B65795570203D200D
:100DE400747275650077203D20747275652C206BD4
:100DF40065795570203D2066616C73650061203D06
:100E04002066616C73652C206B65795570203D20DC
:100E1400747275650061203D20747275652C206BB9
:100E240065795570203D2066616C73650073203DC3
:100E34002066616C73652C206B65795570203D20AC
:100E4400747275650073203D20747275652C206B77
:100E540065795570203D2066616C73650064203DA2
:100E64002066616C73652C206B65795570203D207C
:100E7400747275650064203D20747275652C206B56
:100E840065795570203D2066616C736500676F74E9
:100E9400206E6F7468696E672C2066756C6C2073A5
:100EA400746F7000737461727400060007000500AB
:100EB4000400000000006305A902F70428050805E2
:020EC4005105D6
:00000001FF
